:100000000C942A000C9456000C943C000C943C0078
:100010000C943C000C943C000C943C000C943C0070
:100020000C943C000C943C000C943C000C943C0060
:100030000C943C000C943C000C943C000C943C0050
:100040000C943C000C943C000C943C000C943C0040
:100050000C943C0011241FBECFE5D8E0DEBFCDBF1D
:1000600020E0A0E6B0E001C01D92A336B207E1F7A0
:100070000E94C4010C9400030C94000081E0809362
:10008000600065E070E080E090E00E947D011092E9
:10009000600064E070E081E090E00E942D0163E088
:1000A00070E082E090E00E947D0108951F920F921F
:1000B0000FB60F9211242F933F934F935F936F933B
:1000C0007F938F939F93AF93BF93EF93FF93809111
:1000D0006000813051F580E090E00E94F90085E0F9
:1000E00090E00E94F9000E94F70282B78E7F82BFE3
:1000F00064E070E081E090E00E942D0163E070E038
:1001000082E090E00E947D010E94B90280E00E949E
:10011000CC0280E090E00E94C50085E090E00E9463
:10012000C50080E094E00E94CE02FF91EF91BF9164
:10013000AF919F918F917F916F915F914F913F917F
:100140002F910F900FBE0F901F90189541E061E026
:1001500080E00E94CD0141E062E080E00E94CD019C
:1001600041E063E080E00E94CD0141E065E080E095
:100170000E94CD0141E066E080E00E94CD0141E0B7
:1001800067E080E00E94CD0108958230910531F44E
:1001900041E061E080E00E944402089581309105D1
:1001A00031F441E062E080E00E944402089500974B
:1001B00031F441E063E080E00E944402089585301C
:1001C000910531F441E065E080E00E944402089529
:1001D0008430910531F441E066E080E00E94440201
:1001E0000895039729F441E067E080E00E9444020B
:1001F00008958230910531F440E061E080E00E9492
:10020000440208958130910531F440E062E080E0DD
:100210000E9444020895009731F440E063E080E0DA
:100220000E94440208958530910531F440E065E074
:1002300080E00E94440208958430910531F440E04A
:1002400066E080E00E9444020895039729F440E0AC
:1002500067E080E00E9444020895EF92FF920F93BE
:100260001F93CF93DF937C018B010E94B902D0E0F2
:10027000C0E034C080E00E94CC02D11108C0C701A8
:100280000E94C500C8010E94C500D1E009C0D1305C
:1002900039F4C7010E94F900C8010E94F900D0E0BA
:1002A00080E094E00E94CE020BC00E94F90280918F
:1002B00061009091620001969093620080936100CA
:1002C0008091610090916200883E934070F310929B
:1002D0006200109261000E94F702CF5FC53050F2B9
:1002E000C7010E94F900C8010E94F900DF91CF9177
:1002F0001F910F91FF90EF9008950F931F93CF934D
:10030000DF938C01EB010E94B90280E00E94CC02D5
:10031000C8010E94C500CE010E94C50080E094E0A3
:100320000E94CE020BC00E94F90280916100909160
:100330006200019690936200809361008091610059
:10034000909162008838934170F31092620010928D
:1003500061000E94F702C8010E94F900CE010E94CC
:10036000F900DF91CF911F910F91089540E00E9415
:10037000CD01789485B7816085BF85B7826085BFE0
:100380008BB780648BBF08950E94A60062E083E073
:100390000E94B6010E943E00FDCF813019F130F07D
:1003A0008230E1F1833009F454C0089541110CC04A
:1003B0002AB381E090E002C0880F991F6A95E2F7A6
:1003C000809582238ABB0895413009F05CC02AB32E
:1003D00081E090E002C0880F991F6A95E2F7822BB6
:1003E0008ABB089541110CC027B381E090E002C0A0
:1003F000880F991F6A95E2F78095822387BB08953D
:10040000413009F040C027B381E090E002C0880F7E
:10041000991F6A95E2F7822B87BB089541110CC0A2
:1004200024B381E090E002C0880F991F6A95E2F73B
:100430008095822384BB0895413029F524B381E05F
:1004400090E002C0880F991F6A95E2F7822B84BB67
:10045000089541110CC021B381E090E002C0880FE3
:10046000991F6A95E2F78095822381BB08954130F8
:1004700051F421B381E090E002C0880F991F6A9582
:10048000E2F7822B81BB0895813011F130F0823088
:10049000D1F1833009F452C00895413059F42BB39F
:1004A00081E090E002C0880F991F6A95E2F7822BE5
:1004B0008BBB089541115CC02BB381E090E002C07A
:1004C000880F991F6A95E2F7809582238BBB089568
:1004D000413059F428B381E090E002C0880F991FA1
:1004E0006A95E2F7822B88BB0895411141C028B379
:1004F00081E090E002C0880F991F6A95E2F780952D
:10050000822388BB0895413059F425B381E090E0FF
:1005100002C0880F991F6A95E2F7822B85BB089568
:10052000411126C025B381E090E002C0880F991FD9
:100530006A95E2F78095822385BB0895413059F48E
:1005400022B381E090E002C0880F991F6A95E2F71C
:10055000822B82BB089541110BC022B381E090E051
:1005600002C0880F991F6A95E2F78095822382BBAB
:10057000089583B7877F83BF83B78F7B83BF83B79C
:100580008F7E83BF83B78F7D83BF82B78E7F82BF0D
:1005900089B7816089BF089582BF0895009721F4CB
:1005A00083B7816083BF08958830910521F483B7B4
:1005B000826083BF08958034910539F483B78160E8
:1005C00083BF83B7826083BF0895811521E09207BE
:1005D00021F483B7846083BF08958115944031F47A
:1005E00083B7816083BF83B7846083BF089513BEE0
:1005F000089502B600FEFDCF82B78E7F82BF0895B8
:04060000F894FFCF9C
:00000001FF
